:020000040800F2
:10400000FFFF0120494E0408395F0108475F01089E
:10401000E1600108296101087161010800000000E8
:1040200000000000000000000000000061800008A7
:10403000B9610108000000005D8200082D5F0108E1
:104040008D4E04088D4E04088D4E04088D4E0408D4
:104050008D4E04088D4E0408F95C01080B5D0108C3
:104060001D5D01082F5D0108415D0108A18D01085A
:104070008D4E0408DD8D0108291D0108B11C0108C1
:10408000C7610108599D01088D4E04088D4E040832
:104090008D4E04088D4E04088D4E0408535D0108B2
:1040A0008D4E04088D4E04088D4E04088D4E040874
:1040B0008D4E04088D4E04088D4E04088D8D010828
:1040C000798D01088D4E04088D4E04088D4E04082C
:1040D0008D4E04088D4E0408AD9D0108F99C010821
:1040E000D15D01088D4E04088D4E04088D4E0408E4
:1040F0008D4E040835A001088D4E04088D4E04082D
:104100008D4E04088D4E04088D4E04088D4E040813
:104110008D4E04088D4E04088D4E040831040208AB
:104120002DA603088D4E04088D4E04088D4E0408FC
:104130008D4E04088D4E04088D4E04088D4E0408E3
:104140008D4E04088D4E04088D4E0408B1BE000843
:10415000B5A503088D4E0408419B0108359B010855
:10416000C98D0108B58D01088D4E04088D4E0408D7
:104170008D4E04088D4E04088D4E04088D4E0408A3
:084180008D4E04088D4E040869
:1041880081F0004102E000BF83F0004330B54FEA00
:1041980041044FEA430594EA050F08BF90EA020F6D
:1041A8001FBF54EA000C55EA020C7FEA645C7FEA00
:1041B800655C00F0E2804FEA5454D4EB5555B8BF23
:1041C8006D420CDD2C4480EA020281EA030382EA94
:1041D800000083EA010180EA020281EA0303362D26
:1041E80088BF30BD11F0004F4FEA01314FF4801CF9
:1041F8004CEA113102D0404261EB410113F0004F0B
:104208004FEA03334CEA133302D0524263EB4303C1
:1042180094EA050F00F0A780A4F10104D5F1200E5F
:104228000DDB02FA0EFC22FA05F2801841F10001BA
:1042380003FA0EF2801843FA05F359410EE0A5F18E
:1042480020050EF1200E012A03FA0EFC28BF4CF0BF
:10425800020C43FA05F3C01851EBE37101F0004575
:1042680007D54FF0000EDCF1000C7EEB00006EEB82
:104278000101B1F5801F1BD3B1F5001F0CD349080C
:104288005FEA30004FEA3C0C04F101044FEA445263
:1042980012F5800F80F09A80BCF1004F08BF5FEAEA
:1042A800500C50F1000041EB045141EA050130BDCA
:1042B8005FEA4C0C404141EB010111F4801FA4F16D
:1042C8000104E9D191F0000F04BF01460020B1FAC2
:1042D80081F308BF2033A3F10B03B3F120020CDAFA
:1042E8000C3208DD02F1140CC2F10C0201FA0CF0D8
:1042F80021FA02F10CE002F11402D8BFC2F1200C3D
:1043080001FA02F120FA0CFCDCBF41EA0C019040F2
:10431800E41AA2BF01EB0451294330BD6FEA04043B
:104328001F3C1CDA0C340EDC04F11404C4F1200226
:1043380020FA04F001FA02F340EA030021FA04F338
:1043480045EA030130BDC4F10C04C4F1200220FA8F
:1043580002F001FA04F340EA0300294630BD21FACD
:1043680004F0294630BD94F0000F83F4801306BF93
:1043780081F480110134013D4EE77FEA645C18BF87
:104388007FEA655C29D094EA050F08BF90EA020F1E
:1043980005D054EA000C04BF1946104630BD91EA16
:1043A800030F1EBF0021002030BD5FEA545C05D119
:1043B8004000494128BF41F0004130BD14F5800458
:1043C8003CBF01F5801130BD01F0004545F0FE41CC
:1043D80041F470014FF0000030BD7FEA645C1ABF01
:1043E800194610467FEA655C1CBF0B46024650EA38
:1043F800013406BF52EA033591EA030F41F4002164
:1044080030BD00BF90F0000F04BF0021704730B5E9
:104418004FF4806404F132044FF000054FF00001BE
:1044280050E700BF90F0000F04BF0021704730B57F
:104438004FF4806404F1320410F0004548BF404254
:104448004FF000013EE700BF42004FEAE2014FEAA9
:1044580031014FEA02701FBF12F07F4393F07F4F84
:1044680081F06051704732F07F4208BF704793F087
:104478007F4F04BF41F40021704730B54FF460749A
:1044880001F0004521F000411CE700BF50EA01029D
:1044980008BF704730B54FF000050AE050EA010246
:1044A80008BF704730B511F0004502D5404261EBB6
:1044B80041014FF4806404F132045FEA915C3FF4F7
:1044C800D8AE4FF003025FEADC0C18BF03325FEA94
:1044D800DC0C18BF033202EBDC02C2F1200300FA45
:1044E80003FC20FA02F001FA03FE40EA0E0021FA6A
:1044F80002F11444BDE600BF70B54FF0FF0C4CF458
:10450800E06C1CEA11541DBF1CEA135594EA0C0F09
:1045180095EA0C0F00F0DEF82C4481EA030621EA44
:104528004C5123EA4C5350EA013518BF52EA03357F
:1045380041F4801143F4801338D0A0FB02CE4FF031
:104548000005E1FB02E506F00042E0FB03E54FF061
:104558000006E1FB03569CF0000F18BF4EF0010E59
:10456800A4F1FF04B6F5007F64F5407404D25FEA55
:104578004E0E6D4146EB060642EAC62141EA555108
:104588004FEAC52040EA5E504FEACE2EB4F1FD0C4A
:1045980088BFBCF5E06F1ED8BEF1004F08BF5FEAC8
:1045A800500E50F1000041EB045170BD06F000467A
:1045B80046EA010140EA020081EA0301B4EB5C0427
:1045C800C2BFD4EB0C0541EA045170BD41F480111F
:1045D8004FF0000E013C00F3AB8014F1360FDEBF44
:1045E800002001F0004170BDC4F10004203C35DA20
:1045F8000C341BDC04F11404C4F1200500FA05F3A3
:1046080020FA04F001FA05F240EA020001F0004243
:1046180021F0004110EBD37021FA04F642EB0601B9
:104628005EEA430E08BF20EAD37070BDC4F10C04E3
:10463800C4F1200500FA04F320FA05F001FA04F2A7
:1046480040EA020001F0004110EBD37041F1000193
:104658005EEA430E08BF20EAD37070BDC4F120059E
:1046680000FA05F24EEA020E20FA04F301FA05F206
:1046780043EA020321FA04F001F0004121FA04F2AE
:1046880020EA020000EBD3705EEA430E08BF20EA7E
:10469800D37070BD94F0000F0FD101F000464000B8
:1046A80041EB010111F4801F08BF013CF7D041EA3A
:1046B800060195F0000F18BF704703F0004652003E
:1046C80043EB030313F4801F08BF013DF7D043EA0F
:1046D8000603704794EA0C0F0CEA135518BF95EAC5
:1046E8000C0F0CD050EA410618BF52EA4306D1D14C
:1046F80081EA030101F000414FF0000070BD50EA6B
:10470800410606BF1046194652EA430619D094EAF4
:104718000C0F02D150EA013613D195EA0C0F05D1DE
:1047280052EA03361CBF104619460AD181EA030132
:1047380001F0004141F0FE4141F470014FF00000EA
:1047480070BD41F0FE4141F4780170BD70B54FF085
:10475800FF0C4CF4E06C1CEA11541DBF1CEA135505
:1047680094EA0C0F95EA0C0F00F0A7F8A4EB0504E7
:1047780081EA030E52EA03354FEA013100F08880DE
:104788004FEA03334FF0805545EA131343EA1263A7
:104798004FEA022245EA111545EA10654FEA00265C
:1047A8000EF000419D4208BF964244F1FD0404F515
:1047B800407402D25B084FEA3202B61A65EB030571
:1047C8005B084FEA32024FF480104FF4002CB6EB2E
:1047D800020E75EB030E22BFB61A754640EA0C00AE
:1047E8005B084FEA3202B6EB020E75EB030E22BFEE
:1047F800B61A754640EA5C005B084FEA3202B6EB2F
:10480800020E75EB030E22BFB61A754640EA9C00ED
:104818005B084FEA3202B6EB020E75EB030E22BFBD
:10482800B61A754640EADC0055EA060E18D04FEA7B
:10483800051545EA16754FEA06164FEAC30343EA1B
:1048480052734FEAC2025FEA1C1CC0D111F4801FE8
:104858000BD141EA00014FF000004FF0004CB6E7E1
:1048680011F4801F04BF01430020B4F1FD0C88BF80
:10487800BCF5E06F3FF6AFAEB5EB030C04BFB6EB8B
:10488800020C5FEA500C50F1000041EB045170BD7E
:104898000EF0004E4EEA113114EB5C04C2BFD4EBAB
:1048A8000C0541EA045170BD41F480114FF0000E2F
:1048B800013C90E645EA060E8DE60CEA135594EAAB
:1048C8000C0F08BF95EA0C0F3FF43BAF94EA0C0FAE
:1048D8000AD150EA01347FF434AF95EA0C0F7FF423
:1048E80025AF104619462CE795EA0C0F06D152EA77
:1048F80003353FF4FDAE1046194622E750EA41065B
:1049080018BF52EA43067FF4C5AE50EA41047FF46B
:104918000DAF52EA43057FF4EBAE12E74FF0FF3CD0
:1049280006E000BF4FF0010C02E000BF4FF0010CA1
:104938004DF804CD4FEA410C7FEA6C5C4FEA430C1A
:1049480018BF7FEA6C5C1BD001B050EA410C0CBF69
:1049580052EA430C91EA030F02BF90EA020F0020CB
:10496800704710F1000F91EA030F58BF994208BF32
:1049780090422CBFD8176FEAE37040F001007047EF
:104988004FEA410C7FEA6C5C02D150EA013C07D146
:104998004FEA430C7FEA6C5CD6D152EA033CD3D091
:1049A8005DF8040B704700BF8446104662468C468B
:1049B8001946634600E000BF01B5FFF7B7FF0028BE
:1049C80048BF10F1000F01BD4DF808EDFFF7F4FFE7
:1049D8000CBF012000205DF808FB00BF4DF808ED72
:1049E800FFF7EAFF34BF012000205DF808FB00BF95
:1049F8004DF808EDFFF7E0FF94BF012000205DF8B7
:104A080008FB00BF4DF808EDFFF7CEFF94BF01206B
:104A180000205DF808FB00BF4DF808EDFFF7C4FF64
:104A280034BF012000205DF808FB00BF4FEA410CAD
:104A38007FEA6C5C02D150EA013C0AD14FEA430C90
:104A48007FEA6C5C02D152EA033C02D14FF00000CD
:104A580070474FF0010070474FEA410212F500120B
:104A680015D211D56FF47873B3EB625212D94FEAAD
:104A7800C12343F0004343EA505311F0004F23FA97
:104A880002F018BF404270474FF00000704750EAEC
:104A9800013005D111F0004008BF6FF000407047A9
:104AA8004FF00000704700BF4FEA4102B2F1E04307
:104AB80024BFB3F5001CDCF1FE5C0DD901F0004CFD
:104AC8004FEAC0024CEA5070B2F1004F40EB83004D
:104AD80008BF20F00100704711F0804F21D113F179
:104AE8003872BCBF01F00040704741F480114FEAB2
:104AF8005252C2F11802C2F1200C10FA0CF320FA3B
:104B080002F018BF40F001004FEAC1234FEAD32357
:104B180003FA0CFC40EA0C0023FA02F34FEA4303C1
:104B2800CCE77FEA625307D150EA01331EBF4FF04A
:104B3800FE4040F44000704701F0004040F0FE4065
:104B480040F40000704700BF80F0004002E000BF62
:104B580081F0004142001FBF5FEA410392EA030F60
:104B68007FEA226C7FEA236C6AD04FEA1262D2EBAA
:104B78001363C1BFD218414048404140B8BF5B42AF
:104B8800192B88BF704710F0004F40F4000020F048
:104B98007F4018BF404211F0004F41F4000121F05E
:104BA8007F4118BF494292EA030F3FD0A2F10102A8
:104BB80041FA03FC10EB0C00C3F1200301FA03F1E6
:104BC80000F0004302D5494260EB4000B0F5000F09
:104BD80013D3B0F1807F06D340084FEA310102F1C8
:104BE8000102FE2A51D2B1F1004F40EBC25008BF7A
:104BF80020F0010040EA03007047490040EB000044
:104C080010F4000FA2F10102EDD1B0FA80FCACF172
:104C1800080CB2EB0C0200FA0CF0AABF00EBC25071
:104C280052421843BCBFD0401843704792F0000F5F
:104C380081F4000106BF80F400000132013BB5E7B2
:104C48004FEA41037FEA226C18BF7FEA236C21D028
:104C580092EA030F04D092F0000F08BF084670478D
:104C680090EA010F1CBF0020704712F07F4F04D15B
:104C7800400028BF40F00040704712F100723CBF6E
:104C880000F50000704700F0004343F0FE4040F498
:104C9800000070477FEA226216BF08467FEA236356
:104CA8000146420206BF5FEA412390EA010F40F441
:104CB800800070474FF0000304E000BF10F000438D
:104CC80048BF40425FEA000C08BF704743F0964374
:104CD80001464FF000001CE050EA010208BF70478F
:104CE8004FF000030AE000BF50EA010208BF704716
:104CF80011F0004302D5404261EB41015FEA010C2B
:104D080002BF84460146002043F0B64308BFA3F122
:104D18008053A3F50003BCFA8CF2083AA3EBC25304
:104D280010DB01FA02FC634400FA02FCC2F1200223
:104D3800BCF1004F20FA02F243EB020008BF20F05A
:104D48000100704702F1200201FA02FCC2F12002C0
:104D580050EA4C0021FA02F243EB020008BF20EAB5
:104D6800DC70704753B94AB9002908BF00281CBF36
:104D78004FF0FF314FF0FF3000F0E2B9ADF1080C11
:104D88006DE904CE00F076F8DDF804E0DDE90223F1
:104D980004B0704707EE900AF5EEC07AF1EE10FA0B
:104DA80001D400F021B808B580F0004000F01CF8EC
:104DB800404261EB410108BD38B50022002304469A
:104DC8000D46FFF70BFE28B920462946BDE83840B6
:104DD80000F02EB8204605F1004100F029F84042C5
:104DE80061EB410138BD00BFD0B5FFF72DFB0022B4
:104DF8000D4B06460F46FFF77FFB00F0A3F904466C
:104E0800FFF700FB0022094BFFF776FB02460B4633
:104E180030463946FFF7B8F900F094F900222346E6
:104E280010431946D0BD00BF0000F03D0000F0411E
:104E3800D0B500220D4B06460F46FFF75DFB00F08C
:104E480081F90446FFF7DEFA0022094BFFF754FB0D
:104E580002460B4630463946FFF796F900F072F9DC
:104E68000022234610431946D0BD00BF0000F03D84
:104E78000000F0412DE9F047089E04468846002BC3
:104E88004BD18A42154667D9B2FA82F24AB1C2F1C9
:104E9800200701FA02F320FA07F7954047EA0308CA
:104EA80094404FEA154E230CB8FBFEF71FFA85FC19
:104EB8000EFB178843EA084307FB0CF1994209D90E
:104EC800EB1807F1FF3080F01B81994240F21881FE
:104ED800023F2B445B1AA4B2B3FBFEF00EFB103367
:104EE80044EA034400FB0CFCA44509D92C1900F141
:104EF800FF3380F00781A44540F2048102382C4436
:104F080040EA0740A4EB0C0400271EB1D44000235C
:104F1800C6E900433946BDE8F0878B4209D9002E1F
:104F280000F0EB800027C6E9000138463946BDE8A5
:104F3800F087B3FA83F7002F47D18B4202D382421E
:104F480000F2FA80841A61EB030301209846002ED0
:104F5800E0D0C6E90048DDE702B9FFDEB2FA82F226
:104F6800002A40F08F80491B4FEA154E1FFA85F83A
:104F78000127B1FBFEFC230C0EFB1C1143EA014385
:104F880008FB0CF1994207D9EB180CF1FF3002D25B
:104F9800994200F2CD808446591AA3B2B1FBFEF0C3
:104FA8000EFB101443EA044408FB00F8A04507D997
:104FB8002C1900F1FF3302D2A04500F2B680184642
:104FC800A4EB080440EA0C409FE7C7F1200CBB4063
:104FD80022FA0CFE4EEA030E01FA07F420FA0CF549
:104FE80021FA0CF34FEA1E482543B3FBF8F92C0CC1
:104FF80008FB19331FFA8EFA44EA034309FB0AF443
:105008009C4202FA07F200FA07F10BD91EEB0303E0
:1050180009F1FF3080F087809C4240F28480A9F13A
:10502800020973441B1BADB2B3FBF8F008FB103345
:1050380045EA034400FB0AFAA24508D91EEB04041A
:1050480000F1FF336BD2A24569D90238744440EAB3
:105058000940A0FB0289A4EB0A044C45C2464B4612
:1050680054D351D0002E69D0B1EB0A0564EB030488
:1050780004FA0CFCFD40FC404CEA0505C6E9005466
:10508800002747E7C2F1200320FA03F7954001FA09
:1050980002F021FA03F34FEA154E3843010CB3FB33
:1050A800FEF71FFA85F80EFB173341EA034107FBA9
:1050B80008F38B4204FA02F407D9691807F1FF3C98
:1050C8002FD28B422DD9023F2944CB1A81B2B3FB90
:1050D800FEF00EFB103341EA034100FB08F38B425C
:1050E80007D9691800F1FF3C17D28B4215D902384D
:1050F8002944C91A40EA07473BE73746304609E7DB
:105108000746E7E61846FBE64145ABD2B8EB020A8C
:1051180069EB0E0201381346A4E76046E9E7184632
:1051280095E76746D1E781467CE702382C4447E794
:10513800ACF1020C2B442FE7384608E73746E9E67E
:10514800704700BF4A0011D212F5001211D20DD5D6
:105158006FF47873B3EB62520ED44FEAC12343F075
:10516800004343EA505323FA02F070474FF000001F
:10517800704750EA013002D14FF0FF3070474FF0CE
:105188000000704710F8012B11F8013B012A28BFD5
:105198009A42F7D0D01A7047034613F8012B002A19
:1051A800FBD1181A0138704780B483B000AF78601B
:1051B8007B6803F108027B685A607B684FF0FF3216
:1051C8009A607B6803F108027B68DA607B6803F108
:1051D80008027B681A617B6800221A6000BF0C37DE
:1051E800BD465DF8047B704780B483B000AF78603B
:1051F8007B6800221A6100BF0C37BD465DF8047B4E
:10520800704780B485B000AF786039607B685B68B0
:10521800FB603B68FA685A60FB689A683B689A606A
:10522800FB689B683A685A60FB683A689A603B6812
:105238007A681A617B681B685A1C7B681A6000BF11
:105248001437BD465DF8047B704780B485B000AF65
:10525800786039603B681B68BB60BB68B3F1FF3F8F
:1052680003D17B681B69FB600CE07B680833FB603B
:1052780002E0FB685B68FB60FB685B681B68BA68F8
:105288009A42F6D2FB685A683B685A603B685B688A
:105298003A689A603B68FA689A60FB683A685A60AC
:1052A8003B687A681A617B681B685A1C7B681A60BD
:1052B80000BF1437BD465DF8047B704780B485B0E5
:1052C80000AF78607B681B69FB607B685B687A6805
:1052D80092689A607B689B687A6852685A60FB6833
:1052E8005B687A689A4203D17B689A68FB685A605F
:1052F8007B6800221A61FB681B685A1EFB681A60EB
:10530800FB681B6818461437BD465DF8047B704778
:1053180080B58AB002AFF860B9603B601346FB8085
:10532800FB68002B05D140F22D22544954483EF029
:105338009DFABB6A052B05D940F22E224F495148E8
:105348003EF094FAFB88396B184601F0B9F8B86159
:10535800BB69002B74D0BB691A6BFB8803F18043CF
:10536800013B9B0013447B617B6923F007037B614E
:105378007B6903F00703002B05D04FF417723F49F0
:1053880041483EF073FAFB8800937B6BBA6AB968B0
:10539800B86900F088FF3A68F968786902F00CFE8D
:1053A8000246BB691A60FB6A002B02D0FB6ABA6925
:1053B8001A6002F0FDFE354B1B680133334A136057
:1053C800334B1B68002B09D1314ABB6913602F4B43
:1053D8001B68012B0FD100F0C1FF0CE02D4B1B689F
:1053E800002B08D12A4B1B68DB6ABA6A9A4202D39F
:1053F800274ABB691360284B1B680133264A136090
:10540800254B1A68BB691A64BB69DB6A01229A409A
:10541800224B1B681343214A1360BB69DA6A13469F
:105428009B0013449B001E4A1A44BB690433194667
:105438001046FFF7E6FE0123FB6102F0E5FE02E0FD
:105448004FF0FF33FB61FB69012B11D1114B1B6836
:10545800002B0DD00E4B1B68DB6ABA6A9A4207D93B
:10546800104B4FF080521A60BFF34F8FBFF36F8F0E
:10547800FB6918462037BD4680BD00BFB8A30408A5
:10548800D4A30408E0A3040844A40408E8110020F5
:10549800F8100020F411002004120020F011002060
:1054A800FC10002004ED00E080B584B000AF786007
:1054B80002F07EFE7B68002B02D1324B1B6800E0B5
:1054C8007B68FB60FB6804331846FFF7F7FE03466A
:1054D800002B15D1FB68DA6A2B4913469B0013444D
:1054E8009B000B441B68002B0AD1FB68DB6A012276
:1054F80002FA03F3DA43254B1B681340234A13606F
:10550800FB689B6A002B04D0FB6818331846FFF72A
:10551800D5FEFB68043319461D48FFF772FE1D4B84
:105528001B6801331B4A13601B4B1B6801331A4A63
:10553800136002F069FE194B1B68002B1DD0114B3C
:105548001B68FA689A4212D1154B1B68002B05D0CC
:1055580040F21E32134914483EF088F9134B4FF0BD
:1055680080521A60BFF34F8FBFF36F8F05E002F0D0
:105578001FFE01F093F802F047FE00BF1037BD464A
:1055880080BD00BFF8100020FC100020F0110020A2
:10559800B8110020CC11002004120020F4110020C2
:1055A8000C120020B8A30408B0A4040804ED00E01D
:1055B80080B586B000AF7860396000237B617B6876
:1055C800002B05D140F23F32364937483EF04EF9BC
:1055D8003B68002B05D14FF45072324933483EF0F6
:1055E80045F9334B1B68002B05D040F241322D4959
:1055F80030483EF03BF900F025FA2F4B1B683B6121
:105608007B681B683A681344FB607B681B683A69CF
:105618009A420BD27B681B68FA689A4211D2FA68E0
:105628003B699A420DD901237B610AE07B681B68BC
:10563800FA689A4203D3FA683B699A4201D901236E
:105648007B617B68FA681A607B69002B17D01B4B5B
:105658001B6804331846FFF731FE0346002B0BD1B5
:10566800164B1B68DB6A012202FA03F3DA43144B78
:105678001B681340124A1360F86800F0EBFE00F054
:10568800EFF9B860BB68002B07D10E4B4FF0805282
:105698001A60BFF34F8FBFF36F8F00BF1837BD4637
:1056A80080BD00BFB8A30408CCA40408E0A4040883
:1056B8000C120020B0A40408EC110020F8100020FF
:1056C800F011002004ED00E080B584B000AF7860F0
:1056D8000023FB607B68002B2BD01D4B1B68002B25
:1056E80005D040F2A3321B491B483EF0BFF800F03A
:1056F800A9F91A4B1B687A681344BB60184B1B68DE
:1057080004331846FFF7DAFD0346002B0BD1144B80
:105718001B68DB6A012202FA03F3DA43114B1B68A8
:105728001340104A1360B86800F094FE00F098F92E
:10573800F860FB68002B07D10B4B4FF080521A60C2
:10574800BFF34F8FBFF36F8F00BF1037BD4680BDCB
:105758000C120020B8A30408B0A40408EC1100201F
:10576800F8100020F011002004ED00E080B584B0AE
:1057780000AF786002F01CFD7B68002B02D1354B2E
:105788001B6800E07B68FB60FB6804331846FFF782
:1057980095FD0346002B15D1FB68DA6A2E4913469E
:1057A8009B0013449B000B441B68002B0AD1FB6829
:1057B800DB6A012202FA03F3DA43284B1B68134021
:1057C800264A1360FB689B6A002B04D0FB681833D9
:1057D8001846FFF773FDFB68043319462048FFF7A6
:1057E80010FD02F011FD1B4B1B68FA689A4223D189
:1057F8001C4B1B68002B12D01B4B1B68002B05D0C1
:1058080040F22E5219491A483EF030F8194B4FF021
:1058180080521A60BFF34F8FBFF36F8F16E0104BA3
:105828001A68154B1B689A4203D10A4B00221A606A
:105838000CE000F017FB09E00A4B1B68002B05D0B1
:1058480002F0B6FC00F02AFF02F0DEFC00BF1037C1
:10585800BD4680BDF8100020FC100020F01100208B
:10586800D0110020F41100200C120020B8A3040865
:10587800B0A4040804ED00E0E811002080B584B06D
:1058880000AF78600023FB607B68BB607B68002BFF
:1058980005D140F26652114911483DF0E7FFBB6857
:1058A8005B69104A934201D1012300E00023002BD9
:1058B8000FD0BB689B6A0C4A93420AD0BB689B6AAC
:1058C800002B01D1012300E00023002B01D001238C
:1058D800FB60FB6818461037BD4680BDB8A30408B6
:1058E80024A50408D0110020A411002080B584B09C
:1058F80000AF78607B68FB607B68002B05D14FF4B4
:10590800B262224922483DF0B1FFFB68002B39D032
:10591800204B1B68FA689A4234D002F049FCF868B8
:10592800FFF7ACFF0346012B2AD1FB680433184666
:10593800FFF7C4FCFB68DB6A01229A40164B1B6820
:105948001343154A1360FB68DA6A13469B00134435
:105958009B00124A1A44FB68043319461046FFF7A5
:1059680050FCFB68DA6A0B4B1B68DB6A9A4207D368
:105978000B4B4FF080521A60BFF34F8FBFF36F8FFE
:1059880002F042FC00BF1037BD4680BDB8A3040832
:105998002CA50408F8100020F0110020FC100020AD
:1059A80004ED00E080B586B004AF00230393002324
:1059B80002931C4B019300230093002396221A495B
:1059C8001A48FFF7A5FC78607B68012B02D101F02B
:1059D800DFFD78607B68012B17D14FF05F0383F3FD
:1059E8001188BFF36F8FBFF34F8F3B60104B4FF0A1
:1059F800FF321A600F4B01221A600F4B00221A6007
:105A08001AF08EFC02F04AFB08E07B68002B05D1F7
:105A180040F2516209490A483DF028FF00BF0837A3
:105A2800BD4680BDE41100203CA504089D62000825
:105A380008120020F4110020EC110020B8A304087B
:105A480044A5040880B400AF044B1B680133034A23
:105A5800136000BFBD465DF8047B70470C12002040
:105A680080B582B000AF00237B603C4B1B68002BE5
:105A780005D140F28E623A493A483DF0F7FE02F00D
:105A880097FB364B1B68013B344A1360334B1B684A
:105A9800002B5BD1344B1B68002B57D02EE0334BC7
:105AA800DB68DB683B603B6818331846FFF706FC89
:105AB8003B6804331846FFF701FC3B68DB6A0122A8
:105AC8009A402B4B1B681343294A13603B68DA6AD8
:105AD80013469B0013449B00264A1A443B68043330
:105AE80019461046FFF78DFB3B68DA6A224B1B68A4
:105AF800DB6A9A4202D3214B01221A601B4B1B68B6
:105B0800002BCCD11E4B1B68002B11D00CE000F0F1
:105B1800C9F80346002B02D0184B01221A60184B13
:105B28001B68013B164A1360154B1B68002BEED10E
:105B3800124B1B68012B09D101237B60114B4FF0DD
:105B480080521A60BFF34F8FBFF36F8F02F05CFB78
:105B58007B6818460837BD4680BD00BF0C12002080
:105B6800B8A304084CA50408E8110020A4110020DB
:105B7800F0110020FC100020F8100020FC1100207B
:105B8800F811002004ED00E080B483B000AF054BAD
:105B98001B687B607B6818460C37BD465DF8047B44
:105BA800704700BFEC11002090B587B000AFF860D7
:105BB800B9607A6000237B6106233B61FFF742FFEF
:105BC800324B1B68BA689A4258D33B69013B3B6128
:105BD8007B695B01FA68D0183A6913469B00134445
:105BE8009B002B4A13440122194600F09FFC0246F1
:105BF8007B6913447B613B69002BE6D17B695B01C0
:105C0800FA68D018234B1B680222194600F08EFC54
:105C180002467B6913447B617B695B01FA68D01893
:105C28001D4B1B680222194600F080FC02467B6966
:105C380013447B617B695B01FA68134404221749AA
:105C4800184600F073FC02467B6913447B617B694C
:105C58005B01FA68134403221149184600F066FCF8
:105C680002467B6913447B617B68002B06D01AF0DF
:105C78009DFB03460C461A467B681A60FFF7F0FE48
:105C88007B6918461C37BD4690BD00BFE81100204F
:105C9800FC1000209C110020A0110020B811002049
:105CA800D011002080B586B000AF00237B61514A37
:105CB800514B1B681360514B1B68002B40F08980C7
:105CC8004D4B1B6801334C4A13604B4B1B683B61BF
:105CD8003B69002B1BD14A4B1B681B68002B05D066
:105CE80040F2AA72474948483DF0C0FD444B1B6842
:105CF800FB60464B1B68424A1360444AFB681360CA
:105D0800434B1B680133424A136000F0C7FC414B08
:105D18001B683A699A424DD3394B1B681B68002BA4
:105D280001D1012300E00023002B04D0394B4FF0B0
:105D3800FF321A603EE0324B1B68DB68DB68BB60F1
:105D4800BB685B687B603A697B689A4203D2314AD8
:105D58007B6813602EE0BB6804331846FFF7AEFA81
:105D6800BB689B6A002B04D0BB6818331846FFF742
:105D7800A5FABB68DB6A01229A40274B1B681343CC
:105D8800254A1360BB68DA6A13469B0013449B00DC
:105D9800224A1A44BB68043319461046FFF731FA01
:105DA800BB68DA6A1E4B1B68DB6A9A42B4D30123CC
:105DB8007B61B1E71A4B1B68DA6A184913469B00E6
:105DC80013449B000B441B68012B07D901237B61FB
:105DD80004E0144B1B680133124A1360124B1B6812
:105DE800002B01D001237B617B6918461837BD461B
:105DF80080BD00BF080000E0EC1100200C1200205C
:105E08009C110020B8A3040880A50408A011002054
:105E18000012002008120020F0110020FC100020C1
:105E2800F8100020F8110020FC11002080B584B083
:105E380000AF786039607B68002B03D1084B1B6882
:105E4800FB6001E07B68FB6002F0B2F9FB683A682E
:105E58001A6502F0D9F900BF1037BD4680BD00BFF2
:105E6800F810002090B585B000AF3C4B1B68002BA4
:105E780003D03B4B01221A606CE0394B00221A60B8
:105E88001AF094FA03460C461A46364B1A60354BFC
:105E98001A68354B1B689A4209D9344B1B68596DEF
:105EA800304A1068304A1268821A0A445A652D4BE3
:105EB8001B682D4A13602D4B1B681A682B4B1B68F7
:105EC8001B6B9A4208D8294B1A68284B1B68343335
:105ED8001946104619F02AFA254B1B687B607B6827
:105EE800B3FA83F3FB70FB78C3F11F03FB6021490E
:105EF800FA6813469B0013449B000B441B68002B55
:105F080005D140F6C8021C491C483DF0AFFCFA68B0
:105F180013469B0013449B00164A1344BB60BB689E
:105F28005B685A68BB685A60BB685A68BB680833C4
:105F38009A4204D1BB685B685A68BB685A60BB6800
:105F48005B68DB68094A1360084B1B6834330C4AEA
:105F58001B68136000BF1437BD4690BD0C120020AB
:105F6800FC1100201412002010120020F81000204C
:105F7800F0110020FC100020B8A30408ACA5040808
:105F8800040000E080B584B000AF786039607B68B9
:105F9800002B05D140F6DA021B491C483DF066FC8F
:105FA8001B4B1B68183319467868FFF74EF9184BD6
:105FB8001B6804331846FFF781F90346002B0BD101
:105FC800134B1B68DB6A012202FA03F3DA43114B15
:105FD8001B6813400F4A13603B68B3F1FF3F07D1BA
:105FE8000B4B1B68043319460B48FFF70AF907E007
:105FF8000A4B1B683A681344FB60F86800F02AFAF9
:1060080000BF1037BD4680BDB8A30408F4A5040836
:10601800F8100020F0110020D0110020EC11002011
:1060280080B586B000AFF860B9607A60FB68002B75
:1060380005D140F659121B491B483DF017FC1B4B74
:106048001B6818331946F868FFF7DBF8174B1B680D
:1060580004331846FFF732F90346002B0BD1134BD4
:106068001B68DB6A012202FA03F3DA43104B1B6850
:1060780013400F4A13607B68012B07D10B4B1B6839
:10608800043319460B48FFF7BCF807E00A4B1B68B6
:10609800BA6813447B61786900F0DCF900BF1837EF
:1060A800BD4680BDB8A30408F4A50408F810002074
:1060B800F0110020D0110020EC11002080B584B030
:1060C80000AF78607B68DB68DB68BB60BB68002B6F
:1060D80005D140F6B412224922483DF0C7FBBB68FF
:1060E80018331846FFF7EAF81F4B1B68002B1CD122
:1060F800BB6804331846FFF7E1F8BB68DB6A012286
:106108009A401A4B1B681343184A1360BB68DA6A33
:1061180013469B0013449B00154A1A44BB6804337A
:1061280019461046FFF76DF805E0BB6818331946A5
:106138001048FFF766F8BB68DA6A0F4B1B68DB6A22
:106148009A4205D90123FB600C4B01221A6001E039
:106158000023FB60FB6818461037BD4680BD00BFB2
:10616800B8A304081CA604080C120020F011002093
:10617800FC100020A4110020F8100020FC110020C1
:1061880080B582B000AF78607B68002B05D140F6FF
:106198001422084908483DF069FB084B1A687B68D7
:1061A8001A60074B1A687B685A6000BF0837BD46FB
:1061B80080BD00BFB8A304084CA604080012002044
:1061C800EC11002080B584B000AF786039607B683E
:1061D800002B05D140F61E22234924483DF046FBFA
:1061E8003B68002B05D140F61F221F4920483DF08F
:1061F8003DFB01F0DDFF1F4B1B68BB603B681B6864
:10620800B3F1FF3F02D10023FB6026E07B681A68E8
:10621800194B1B689A4207D07B685B68BA689A4238
:1062280002D30123FB6018E07B685B68BA68D21A66
:106238003B681B689A420ED23B681A687B685968AB
:10624800BB68CB1A1A443B681A607868FFF798FF56
:106258000023FB6001E00123FB6001F0D5FFFB6830
:1062680018461037BD4680BDB8A304084CA60408DC
:1062780058A60408EC1100200012002080B400AFDA
:10628800034B01221A6000BFBD465DF8047B7047CE
:10629800FC11002080B582B000AF786000F09EF855
:1062A80021F0FCFDFAE780B586B000AFF860B96070
:1062B8007A603B6000237B6112E0BA687B69134413
:1062C8001978FA687B69134434330A461A70BA6835
:1062D8007B6913441B78002B06D07B6901337B61F3
:1062E8007B69092BE9D900E000BFFB68002283F82D
:1062F8003D207B68052B01D905237B60FB687A6804
:10630800DA62FB687A689A64FB680022DA64FB68E0
:1063180004331846FEF768FFFB6818331846FEF783
:1063280063FFFB68FA681A617B68C3F10602FB68C1
:106338009A61FB68FA685A62FB6800221A65FB6872
:1063480000225A65FB6800229A65FB68002283F8E0
:106358005C2000BF1837BD4680BD000080B582B004
:1063680000AF00237B600CE07A6813469B0013445F
:106378009B00124A13441846FEF716FF7B68013348
:106388007B607B68052BEFD90D48FEF70DFF0D48A4
:10639800FEF70AFF0C48FEF707FF0C48FEF704FF5C
:1063A8000B48FEF701FF0B4B054A1A600A4B054ADA
:1063B8001A6000BF0837BD4680BD00BFFC10002032
:1063C8007411002088110020A4110020B8110020A9
:1063D800D01100209C110020A011002080B582B0AF
:1063E80000AF28E0FFF72EFB174B1B68002B0CBFF4
:1063F80001230023DBB27B60FFF732FB7B68002BB5
:1064080019D101F0D5FE104BDB68DB683B603B68B7
:1064180004331846FEF752FF0C4B1B68013B0B4A2E
:1064280013600B4B1B68013B094A136001F0ECFE3B
:10643800386800F023F9064B1B68002BD2D100BF47
:106448000837BD4680BD00BFB8110020E811002004
:10645800CC11002080B582B000AF7860134B1B6868
:106468007A685A60124B1B687A689A4209D2114BB3
:106478001A680E4B1B68043319461046FEF7E5FEF2
:1064880010E00D4B1A68094B1B6804331946104677
:10649800FEF7DBFE094B1B687A689A4202D2074A6C
:1064A8007B68136000BF0837BD4680BDF810002028
:1064B800EC110020A01100209C11002008120020DF
:1064C80080B584B000AF03463960FB803B68002B81
:1064D80006D1FB889B00184601F090FB034600E0BC
:1064E8003B68BB60BB68002B0ED0602001F086FBC8
:1064F800F860FB68002B03D0FB68BA681A6305E0F4
:10650800B86801F03BFC01E00023FB60FB68002B4E
:1065180007D0FB68186BFB889B001A46A52143F03F
:106528009AFDFB6818461037BD4680BD90B58BB004
:1065380000AFF860B9601346FB7100237B62BB684B
:106548001B68002B79D0BB683B623B6A5B685A6862
:106558003B6A5A603B6A5A683B6A08339A4204D1DC
:106568003B6A5B685A683B6A5A603B6A5B68DB68EF
:10657800FB61BB68BB61BB695B685A68BB695A60F1
:10658800BB695A68BB6908339A4204D1BB695B6826
:106598005A68BB695A60BB695B68DB687B617B6A68
:1065A8005B01FA6813447A691A607B6A5B01FA68CE
:1065B80013447A6934325A607B6A5B01FA6813447F
:1065C8007A69126C9A607B6A5B01FA681344FA79FB
:1065D8001A737B6A5B01FA6813447A69D26A1A6192
:1065E800FB79032B09D17B699B6A002B05D07B6A59
:1065F8005B01FA68134402221A737B6A5B01FA682A
:1066080013447A69926C5A617B6A5B01FA68134495
:106618007A69526D9A617B69196B7B6A5B01FA68CA
:10662800D418084600F00EF80346A3837B6A0133AA
:106638007B627A69FB699A429BD17B6A18462C3740
:10664800BD4690BD80B485B000AF78600023FB6084
:1066580005E07B6801337B60FB680133FB607B6886
:106668001B78A52BF5D0FB689B08FB60FB689BB2E9
:1066780018461437BD465DF8047B704780B582B074
:1066880000AF78607B681B6B184601F077FB786871
:1066980001F074FB00BF0837BD4680BD80B483B0ED
:1066A80000AF0F4B1B681B68002B01D1012300E0D2
:1066B8000023002B04D00B4B4FF0FF321A6008E088
:1066C800074B1B68DB68DB687B607B685B68054A97
:1066D800136000BF0C37BD465DF8047B704700BFF0
:1066E8009C1100200812002080B483B000AF0B4B2F
:1066F8001B68002B02D101237B6008E0084B1B6854
:10670800002B02D102237B6001E000237B607B68C1
:1067180018460C37BD465DF8047B7047F41100201D
:106728000C12002080B584B000AF78607B68FB60F5
:106738007B68002B62D0FB68DA6A324B1B68DB6A25
:106748009A425BD2FB689B69002B06DB2D4B1B68CA
:10675800DB6AC3F10602FB689A61FB685969FB684A
:10676800DA6A13469B0013449B00274A1344994254
:1067780001D1012300E00023002B3AD0FB68043349
:106788001846FEF79BFD0346002B15D1FB68DA6A15
:106798001D4913469B0013449B000B441B68002BA8
:1067A8000AD1FB68DB6A012202FA03F3DA43174BCA
:1067B8001B681340154A1360124B1B68DA6AFB68A2
:1067C800DA62FB68DB6A01229A40104B1B681343AC
:1067D8000E4A1360FB68DA6A13469B0013449B0059
:1067E800094A1A44FB68043319461046FEF709FDA6
:1067F80004E0044B1B68DA6AFB68DA6200BF1037F2
:10680800BD4680BDF8100020FC100020F0110020CB
:1068180080B584B000AF78607B68BB600023FB6004
:106828007B68002B64D0354B1B68BA689A4205D048
:1068380040F6A752324933483DF018F8BB68DB6C84
:10684800002B05D140F6A9522D492F483DF00EF8EE
:10685800BB68DB6C5A1EBB68DA64BB68DA6ABB6863
:106868009B6C9A4244D0BB68DB6C002B40D1BB6860
:1068780004331846FEF722FD0346002B15D1BB68EA
:10688800DA6A224913469B0013449B000B441B6899
:10689800002B0AD1BB68DB6A012202FA03F3DA4350
:1068A8001B4B1B6813401A4A1360BB689A6CBB6881
:1068B800DA62BB68DB6AC3F10602BB689A61BB682F
:1068C800DB6A01229A40124B1B681343104A13607B
:1068D800BB68DA6A13469B0013449B000B4A1A44B0
:1068E800BB68043319461046FEF78BFC0123FB6096
:1068F800FB6818461037BD4680BD00BFF810002061
:10690800B8A3040868A6040880A60408FC100020A0
:10691800F011002080B400AF074B1B68002B04D097
:10692800054B1B68DA6C0132DA64034B1B681846A6
:10693800BD465DF8047B7047F810002080B584B030
:1069480000AF786039607B68FB60FB68002B05D17D
:106958004FF484722A492B483CF088FF01F028FC48
:10696800FB681A68FB68DB6BF968096C01FB03F3C9
:106978001A44FB685A60FB6800229A63FB681A682D
:10698800FB689A60FB681A68FB68DB6B013BF96877
:10699800096C01FB03F31A44FB68DA60FB684FF0EB
:1069A800FF325A64FB684FF0FF329A643B68002B51
:1069B80014D1FB681B69002B1AD0FB6810331846EA
:1069C800FFF77CFB0346012B12D10F4B4FF080528F
:1069D8001A60BFF34F8FBFF36F8F09E0FB68103366
:1069E8001846FEF7E1FBFB6824331846FEF7DCFB8C
:1069F80001F00AFC012318461037BD4680BD00BFD0
:106A0800E8A6040804A7040804ED00E080B588B0EF
:106A180000AFF860B9601346FB710023BB61FB68E7
:106A2800002B05D140F24312214922483CF01EFFB9
:106A3800BB68002B02D10023FB6105E0FB68BA6844
:106A480002FB03F30133FB61FB695433184601F081
:106A5800D5F878617B69002B1BD0BB68002B03D16C
:106A68007B697A691A6004E07B6903F154027B69E7
:106A78001A607B69FA68DA637B69BA681A6401216B
:106A88007869FFF75BFF7B69FA7983F850207B69A7
:106A9800BB61BB69002B05D140F27F12044906484F
:106AA8003CF0E4FEBB6918462037BD4680BD00BFF8
:106AB800E8A604080CA7040830A7040880B584B029
:106AC80000AF0346FB71542001F098F8F860FB68AA
:106AD800002B30D0FB6800225A60FB6800221A6045
:106AE800FB6800229A60FB680022DA60FB680022DB
:106AF8009A63FB680122DA63FB6800221A64FB6868
:106B08004FF0FF325A64FB684FF0FF329A64FB681B
:106B1800FA7983F85020FB6810331846FEF744FBD7
:106B2800FB6824331846FEF73FFB002300220021B0
:106B3800F86800F005F8FB6818461037BD4680BDB8
:106B480080B58AB000AFF860B9607A603B60002316
:106B58007B62FB683B623B6A002B05D140F26722EF
:106B6800744975483CF082FEBB68002B03D13B6A30
:106B78001B6C002B01D1012300E00023002B05D161
:106B88004FF41A726B496D483CF070FE3B68022B5B
:106B980003D13B6ADB6B012B01D1012300E0002309
:106BA800002B05D140F26922624965483CF05EFE3F
:106BB800FFF79AFD0346002B02D17B68002B01D119
:106BC800012300E00023002B05D14FF41B72594923
:106BD8005C483CF04BFE01F0EBFA3B6A9A6B3B6A6F
:106BE800DB6B9A4202D33B68022B2FD13B6ADB6CEA
:106BF800554A43F4807313603A68B968386A00F0FC
:106C080043FBF8613B6A5B6A002B10D03B6A243374
:106C18001846FFF753FA0346012B13D14B4B4FF09D
:106C280080521A60BFF34F8FBFF36F8F0AE0FB6982
:106C3800002B07D0454B4FF080521A60BFF34F8F9F
:106C4800BFF36F8F01F0E0FA01236FE07B68002B40
:106C580009D101F0D9FA3B6ADB6C3B4A43F4007373
:106C68001360002362E07B6A002B06D107F114034E
:106C78001846FFF785FA01237B6201F0C5FAFEF793
:106C8800E1FE01F095FA3B6A5B6CB3F1FF3F02D17C
:106C98003B6A00225A643B6A9B6CB3F1FF3F02D106
:106CA8003B6A00229A6401F0AFFA3A1D07F1140317
:106CB80011461846FFF786FA0346002B2AD1386A90
:106CC80000F0D5FB0346002B1ED03B6ADB6C1E4A46
:106CD80043F4806313603B6A10337A6811461846A0
:106CE800FFF750F9386A00F060FBFEF7B9FE03467B
:106CF800002B7FF470AF154B4FF080521A60BFF332
:106D08004F8FBFF36F8F66E7386A00F04EFBFEF7D0
:106D1800A7FE60E7386A00F048FBFEF7A1FE3B6A71
:106D2800DB6C094A43F400731360002318462837C4
:106D3800BD4680BDE8A6040804A7040838A70408CF
:106D480088A70408D0A704080C0000E004ED00E0C0
:106D580080B58AB000AFF860B9607A603B60FB68C4
:106D68003B623B6A002B05D140F22442384939483E
:106D78003CF07CFDBB68002B03D13B6A1B6C002BED
:106D880001D1012300E00023002B05D140F2254268
:106D98002F4931483CF06AFD3B68022B03D13B6A1E
:106DA800DB6B012B01D1012300E00023002B05D16F
:106DB80040F22642264929483CF058FD01F0BEFA27
:106DC800EFF311824FF05F0383F31188BFF36F8FE6
:106DD800BFF34F8FBA617B61BB69FB613B6A9A6BFA
:106DE8003B6ADB6B9A4202D33B68022B24D13A6898
:106DF800B968386A00F048FA3B6A9B6CB3F1FF3F08
:106E080012D13B6A5B6A002B13D03B6A24331846C5
:106E1800FFF754F90346002B0BD07B68002B08D0F2
:106E28007B6801221A6004E03B6A9B6C5A1C3B6A2F
:106E38009A6401237B6201E000237B62FB693B616A
:106E48003B6983F311887B6A18462837BD4680BDA5
:106E5800E8A6040804A7040838A7040888A70408B3
:106E680080B588B000AF786039607B68BB61BB696A
:106E7800002B05D140F2BF42334934483CF0F6FCC0
:106E8800BB691B6C002B05D040F2C3422E49304829
:106E98003CF0ECFCBB691B68002B03D1BB695B6849
:106EA800002B01D1012300E00023002B05D14FF472
:106EB8009962254927483CF0D9FC01F03FFAEFF3E5
:106EC80011824FF05F0383F31188BFF36F8FBFF315
:106ED8004F8F3A61FB603B697B61BB699A6BBB6909
:106EE800DB6B9A4224D2BB699B6B5A1CBB699A63C1
:106EF800BB699B6CB3F1FF3F12D1BB695B6A002B86
:106F080013D0BB6924331846FFF7D8F80346002B83
:106F18000BD03B68002B08D03B6801221A6004E0C4
:106F2800BB699B6C5A1CBB699A640123FB6101E035
:106F38000023FB617B69BB60BB6883F31188FB6935
:106F480018462037BD4680BDE8A6040804A70408F3
:106F580028A8040844A8040880B58AB000AFF860DF
:106F6800B9607A603B6000237B62FB683B623B6AE6
:106F7800002B05D140F25B52754976483CF076FC0F
:106F8800BB68002B03D13B6A1B6C002B01D101238A
:106F980000E00023002B05D140F25C526C496E489A
:106FA8003CF064FCFFF7A0FB0346002B02D17B6892
:106FB800002B01D1012300E00023002B05D140F272
:106FC8005F52634965483CF051FC01F0F1F83B6AB7
:106FD8009B6B002B47D03B6ADB68FB61B968386A5A
:106FE80000F0BDF93B68002B22D13B6A9B6B5A1E0F
:106FF8003B6A9A633B6A1B68002B04D1FFF78AFC43
:1070080002463B6A5A603B6A1B69002B27D03B6AE1
:1070180010331846FFF752F80346012B1FD1504B87
:107028004FF080521A60BFF34F8FBFF36F8F16E097
:107038003B6AFA69DA603B6A5B6A002B0FD03B6AED
:1070480024331846FFF73AF80346002B07D0444B81
:107058004FF080521A60BFF34F8FBFF36F8F01F06C
:10706800D3F8012370E07B68002B03D101F0CCF842
:10707800002369E07B6A002B06D107F11403184648
:10708800FFF77EF801237B6201F0BEF8FEF7DAFC19
:1070980001F08EF83B6A5B6CB3F1FF3F02D13B6AAB
:1070A80000225A643B6A9B6CB3F1FF3F02D13B6AF2
:1070B80000229A6401F0A8F83A1D07F1140311465A
:1070C8001846FFF77FF80346002B37D1386A00F0DF
:1070D800B8F90346002B2BD03B6ADB6C214A43F4FA
:1070E800407313603B6A1B68002B08D101F060F8FD
:1070F8003B6A5B681846FFF715FB01F085F83B6AA9
:1071080024337A6811461846FEF73CFF386A00F0C7
:107118004CF9FEF7A5FC0346002B7FF456AF104B45
:107128004FF080521A60BFF34F8FBFF36F8F4CE759
:10713800386A00F03AF9FEF793FC46E7386A00F03F
:1071480034F9FEF78DFC002318462837BD4680BD6C
:10715800E8A6040804A70408A0A80408D0A70408FF
:1071680004ED00E00C0000E080B58AB000AFF860E4
:10717800B9607A60FB683B623B6A002B05D140F23C
:1071880015622F492F483CF071FBBB68002B03D1D7
:107198003B6A1B6C002B01D1012300E00023002B6C
:1071A80005D140F21662264927483CF05FFB01F002
:1071B800C5F8EFF311824FF05F0383F31188BFF333
:1071C8006F8FBFF34F8FBA617B61BB69FB613B6A0D
:1071D8009B6B002B28D0B968386A00F0C0F83B6A6E
:1071E8009B6B5A1E3B6A9A633B6A5B6CB3F1FF3F29
:1071F80012D13B6A1B69002B13D03B6A1033184627
:10720800FEF75CFF0346002B0BD07B68002B08D0F1
:107218007B6801221A6004E03B6A5B6C5A1C3B6A7B
:107228005A6401237B6201E000237B62FB693B61B6
:107238003B6983F311887B6A18462837BD4680BDB1
:10724800E8A6040804A70408A0A8040880B584B028
:1072580000AF78607B68002B05D14FF4D4620849F1
:1072680008483CF003FB00F0A3FF7B689B6BFB60C6
:1072780000F0CAFFFB6818461037BD4680BD00BF46
:10728800E8A6040808A9040880B586B000AFF8602D
:10729800B9607A6000237B61FB681B6C002B0DD101
:1072A800FB681B68002B50D1FB685B681846FFF72A
:1072B800AFFA7861FB6800225A6046E07B68002BD1
:1072C80019D1FB689868FB681B6C1A46B96842F0CC
:1072D800B7FEFB689A68FB681B6C1A44FB689A60E7
:1072E800FB689A68FB685B689A422ED3FB681A6849
:1072F800FB689A6029E0FB68D868FB681B6C1A4633
:10730800B96842F09DFEFB68DA68FB681B6C5B425B
:107318001A44FB68DA60FB68DA68FB681B689A4203
:1073280007D2FB685A68FB681B6C5B421A44FB680F
:10733800DA607B68022B08D1FB689B6B002B04D0BA
:10734800FB689B6B5A1EFB689A63FB689B6B5A1C15
:10735800FB689A637B6918461837BD4680BD80B5BF
:1073680082B000AF786039607B681B6C002B18D046
:107378007B68DA687B681B6C1A447B68DA607B6818
:10738800DA687B685B689A4203D37B681A687B6813
:10739800DA607B68D9687B681B6C1A46386842F0EB
:1073A8004FFE00BF0837BD4680BD80B582B000AF34
:1073B800786000F0FDFE12E07B685B6A002B13D05A
:1073C8007B6824331846FEF779FE0346002B01D06C
:1073D800FEF754FF7B689B6C5A1E7B689A647B6837
:1073E8009B6C002BE8DC00E000BF7B684FF0FF32AD
:1073F8009A6400F009FF00F0DBFE12E07B681B696D
:10740800002B13D07B6810331846FEF757FE03464F
:10741800002B01D0FEF732FF7B685B6C5A1E7B683D
:107428005A647B685B6C002BE8DC00E000BF7B687B
:107438004FF0FF325A6400F0E7FE00BF0837BD4640
:1074480080BD80B584B000AF786000F0B1FE7B6885
:107458009B6B002B02D10123FB6001E00023FB6042
:1074680000F0D2FEFB6818461037BD4680BD80B5D7
:1074780084B000AF786000F09BFE7B689A6B7B68F5
:10748800DB6B9A4202D10123FB6001E00023FB6021
:1074980000F0BAFEFB6818461037BD4680BD0000F4
:1074A80080B584B000AF78607B68002B05D140F6CA
:1074B80007020A490A483CF0D9F97B689A6B7B684D
:1074C800DB6B9A4202D10123FB6001E00023FB60E1
:1074D800FB6818461037BD4680BD00BFE8A6040803
:1074E80008A9040880B485B000AF7860396000232B
:1074F800FB6014E00E4AFB6852F83330002B0BD1C6
:107508000B49FB683A6841F83320094AFB68DB00FD
:1075180013447A685A6005E0FB680133FB60FB6836
:10752800092BE7D900BF1437BD465DF8047B7047C7
:107538005475012080B586B000AFF860B9607A60F4
:10754800FB687B6100F034FE7B695B6CB3F1FF3F45
:1075580002D17B6900225A647B699B6CB3F1FF3FBF
:1075680002D17B6900229A6400F04EFE7B699B6B16
:10757800002B06D17B6924337A68B9681846FEF770
:107588004FFD7869FFF711FF00BF1837BD4680BD72
:1075980080B586B004AF00237B6000F0CBFA114BB6
:1075A8001B68002B0FD000230393002302930023B2
:1075B80001930123009300234FF416720A490B48E4
:1075C800FDF7A6FE78607B68002B05D14FF4877223
:1075D800074908483CF04AF97B6818460837BD4611
:1075E80080BD00BF4812002010A904089177000848
:1075F80018A9040834A9040880B586B000AFF8605B
:10760800B9607A603B60BB68002B02D100237B61C4
:107618001CE02C2000F0F2FA78617B69002B15D071
:1076280000F088FA7B69FA681A607B69BA689A611F
:107638007B697A68DA617B693A681A627B693A6AB7
:107648005A627B6904331846FDF7CEFDBB68002BF0
:1076580005D14FF49B72044904483CF007F97B6953
:1076680018461837BD4680BD18A904083CA9040867
:1076780080B588B000AFF860B9607A603B600023DD
:10768800FB61FB68002B05D140F241121B491C48E5
:107698003CF0ECF81B4B1B68002B2AD0BB683B6105
:1076A8007B687B61FB68BB61BB68052B18DCFFF757
:1076B8001BF80346022B09D1124B186807F1100179
:1076C8000023BA6AFFF73CFAF86112E00D4B18681C
:1076D80007F1100100230022FFF732FAF86108E0F1
:1076E800084B186807F1100100233A68FFF730FBD0
:1076F800F861FB6918462037BD4680BD18A9040803
:1077080058A904084812002080B586B002AF7860F6
:1077180039601A4B1B68DB68DB68FB60FB68043365
:107728001846FDF7CBFDFB68DB69012B1DD1FB6813
:107738009A697B68D1187B683A68F86800F0C8F8DD
:107748000346012B11D10023009300237A680021FE
:10775800F868FFF78DFFB860BB68002B05D140F2D1
:107768009312074907483CF081F8FB685B6AF868A0
:10777800984700BF1037BD4680BD00BF40120020AB
:1077880018A9040860A9040880B584B000AF78601F
:1077980007F10803184600F057F8F860BB68194667
:1077A800F86800F003F800F0D5F8F1E780B584B088
:1077B80000AF78603960FEF745F907F1080318460D
:1077C80000F066F8F860BB68002B30D13B68002BEE
:1077D8000AD17A68FB689A4206D8FEF741F9F96837
:1077E8007868FFF791FF24E03B68002B08D0134B23
:1077F8001B681B68002B0CBF01230023DBB23B6016
:107808000F4B18687A68FB68D31A3A681946FFF76D
:1078180091FEFEF725F90346002B0AD1094B4FF0DC
:1078280080521A60BFF34F8FBFF36F8F01E0FEF7EE
:1078380017F900BF1037BD4680BD00BF44120020B5
:107848004812002004ED00E080B485B000AF7860F5
:107858000E4B1B681B68002B0CBF01230023DBB2F7
:107868001A467B681A607B681B68002B05D1074B9A
:107878001B68DB681B68FB6001E00023FB60FB689A
:1078880018461437BD465DF8047B70474012002047
:1078980080B584B000AF7860FEF776F9F8600B4BDE
:1078A8001B68FA689A4205D200F0E4F87B68012266
:1078B8001A6002E07B6800221A60044AFB681360C1
:1078C800FB6818461037BD4680BD00BF4C1200202B
:1078D80080B586B000AFF860B9607A603B6000237D
:1078E8007B61FB68BA685A60FB68FA681A61BA6813
:1078F8007B689A4212D87A683B68D21AFB689B69FF
:107908009A4202D301237B611BE0104B1A68FB6883
:10791800043319461046FDF798FC12E07A683B6874
:107928009A4206D2BA683B689A4202D301237B6125
:1079380007E0074B1A68FB68043319461046FDF741
:1079480084FC7B6918461837BD4680BD4412002068
:107958004012002080B58AB002AF73E0BB68002BEC
:107968006FDB3B69FB61FB695B69002B04D0FB693A
:1079780004331846FDF7A2FC3B1D1846FFF788FFA5
:10798800B861BB68092B5DD801A252F823F000BF8B
:10799800C1790008C1790008C17900084D7A00084A
:1079A800157A0008437A0008C1790008C1790008EF
:1079B8004D7A0008157A0008FA68FB699B69D118A6
:1079C800FB68BA69F869FFF783FF0346012B39D1D1
:1079D800FB695B6AF8699847FB69DB69012B31D160
:1079E800FA68FB699B691A4400230093002300216D
:1079F800F869FFF73DFE78617B69002B22D14FF4CF
:107A08002872184918483BF031FF1BE0FA68FB69F7
:107A18009A61FB699B69002B05D140F2B722114995
:107A280012483BF023FFFB699A69BB69D118BB690F
:107A3800BA69F869FFF74CFF04E0F86900F09EF9AD
:107A480000E000BF0A4B186807F108010023002274
:107A5800FFF782FA0346002B80D100BF2037BD46CE
:107A680080BD00BF18A9040860A9040868A9040813
:107A78004812002080B588B002AF40E0294B1B684F
:107A8800DB681B683B61274B1B68DB68DB68FB60B6
:107A9800FB6804331846FDF711FCFB685B6AF8685D
:107AA8009847FB68DB69012B29D1FB689B693A6918
:107AB8001344BB60BA683B699A420ED9FB68BA683E
:107AC8005A60FB68FA681A61164B1A68FB68043337
:107AD80019461046FDF7B9FB11E000230093002377
:107AE8003A690021F868FFF7C3FD78607B68002BCE
:107AF80005D14FF43F720C490C483BF0B7FE094BD7
:107B08001B681B68002BB9D1064B1B687B61084BAF
:107B18001B68044A1360064A7B69136000BF183764
:107B2800BD4680BD4012002018A9040860A90408B9
:107B38004412002080B500AF00F03AFB174B1B68D9
:107B4800002B27D11648FDF72FFB1648FDF72CFB15
:107B5800154B134A1A60154B124A1A6000220C2161
:107B68001420FEF753FF02460C4B1A600B4B1B68A0
:107B7800002B05D140F21A320D490E483BF076FE33
:107B8800064B1B68002B05D0044B1B680A49184696
:107B9800FFF7A8FC00F038FB00BF80BD48120020AA
:107BA800181200202C12002040120020441200203D
:107BB80018A9040890A904089CA9040880B584B0F1
:107BC80000AF78607B68FB607B68002B05D14FF4C1
:107BD8005372084908483BF049FE00F0E9FAFB688F
:107BE8001B6ABB6000F010FBBB6818461037BD4627
:107BF80080BD00BF18A9040858A9040880B586B03C
:107C080000AF78600023FB60FDF71CFF524B1B6838
:107C1800002B01D100F014F9504B1A687B6813400F
:107C2800002B40F082807B68002B17D008227B68ED
:107C380013447B607B6803F00703002B0ED07B683E
:107C480023F0070308337B607B6803F00703002BEE
:107C580004D0BB22424943483BF008FE7B68002B16
:107C680063D0414B1B687A689A425ED83F4B3B61B0
:107C78003E4B1B687B6104E07B693B617B691B6849
:107C88007B617B695B687A689A4203D97B691B6868
:107C9800002BF1D1304B1B687A699A4245D03B6979
:107CA8001B6808221344FB607B691A683B691A60E9
:107CB8007B695A687B68D21A08235B009A4219D9F3
:107CC8007A697B681344BB60BB6803F00703002B29
:107CD80004D0E822224926483BF0C8FD7B695A684F
:107CE8007B68D21ABB685A607B697A685A60B86840
:107CF80000F008F91C4B1A687B695B68D31A1A4AAA
:107D08001360194B1A681B4B1B689A4203D2164B17
:107D18001B68184A13607B695A68104B1B681A4322
:107D28007B695A607B6900221A60FDF799FEFB683F
:107D3800002B01D117F0DCFAFB6803F00703002BD6
:107D480005D04FF4947206490B483BF08FFDFB6851
:107D580018461837BD4680BD98AE0020A4AE002056
:107D6800A4A90408D0A904089CAE002090AE002065
:107D780000AA0408A0AE002044AA040880B584B074
:107D880000AF78607B68FB607B68002B3ED00823DF
:107D98005B42FA681344FB60FB68BB60BB685A68C7
:107DA8001C4B1B681340002B05D14FF49E721A49D7
:107DB8001A483BF05BFDBB681B68002B05D040F2FE
:107DC8003D12154916483BF051FDBB685A68114BE6
:107DD8001B681340002B19D0BB681B68002B15D1FA
:107DE800BB685A680B4B1B68DB431A40BB685A6078
:107DF800FDF728FEBB685A680A4B1B681344094AFA
:107E08001360B86800F07EF8FDF72AFE00BF10374F
:107E1800BD4680BDA4AE0020A4A9040884AA040815
:107E2800B8AA04089CAE002080B400AF034B1B68BE
:107E38001846BD465DF8047B704700BF9CAE002025
:107E480080B485B000AF49F64043BB60274BFB6068
:107E5800FB6803F00703002B0CD0FB680733FB60BB
:107E6800FB6823F00703FB60BA68FB68D31A1F4A54
:107E78001344BB60FB687B601D4A7B6813601C4B26
:107E880000225A607B68BA681344FB600822FB68CA
:107E98009B1AFB60FB6823F00703FB60FB68154A2D
:107EA8001360144B1B6800225A60124B1B68002297
:107EB8001A607B683B603B68FA68D21A3B685A6074
:107EC8000C4B1A683B681A603B685B680A4A136087
:107ED8003B685B68094A1360094B4FF000421A601F
:107EE80000BF1437BD465DF8047B70475012002070
:107EF80090AE002098AE0020A0AE00209CAE0020DE
:107F0800A4AE002080B485B000AF7860284BFB6039
:107F180002E0FB681B68FB60FB681B687A689A4292
:107F2800F7D8FB68BB60FB685B68BA6813447A687B
:107F38009A4208D1FB685A687B685B681A44FB68F8
:107F48005A60FB687B607B68BB607B685B68BA686B
:107F58001A44FB681B689A4218D1FB681A68154BCB
:107F68001B689A420DD07B685A68FB681B685B687F
:107F78001A447B685A60FB681B681A687B681A6039
:107F880008E00C4B1A687B681A6003E0FB681A6803
:107F98007B681A60FA687B689A4202D0FB687A6844
:107FA8001A6000BF1437BD465DF8047B704700BFF8
:107FB80090AE002098AE002080B485B000AFF86085
:107FC800B9607A60FB68043BFB60FB684FF0807225
:107FD8001A60FB68043BFB60BA68FB681A60FB68C0
:107FE800043BFB600C4AFB681A60FB68143BFB60AF
:107FF8007A68FB681A60FB68043BFB60FB686FF0FB
:1080080002021A60FB68203BFB60FB6818461437C5
:10801800BD465DF8047B70472580000880B582B0B6
:1080280000AF0A4B1B68B3F1FF3F05D040F20712BF
:10803800074908483BF01AFC4FF05F0383F31188A7
:10804800BFF36F8FBFF34F8F7B60FEE70000002008
:10805800D8AA040808AB0408064B19680868B0E8F1
:10806800F04F80F30988BFF36F8F4FF0000080F363
:1080780011887047F810002000BF00BF064800684C
:10808800006880F3088862B661B6BFF34F8FBFF30C
:108098006F8F00DF00BF00BF08ED00E080B584B03F
:1080A80000AF374B1B68374A934205D140F23D1267
:1080B800354936483BF0DAFB314B1B68344A93426A
:1080C80005D14FF49F72304932483BF0CFFB324B19
:1080D800FB60FB681B78DBB2BB60FB68FF221A7091
:1080E800FB681B78DBB2FB71FB79DBB203F05F0343
:1080F800DAB22A4B1A702A4B07221A6009E0284B79
:108108001B68013B264A1360FB79DBB25B00DBB2DC
:10811800FB71FB79DBB203F08003802BEFD0204B9F
:108128001B681B021E4A13601D4B1B6803F4E063A7
:108138001B4A1360BB68DAB2FB681A70194B1B68DC
:10814800184A43F47F031360164B1B68154A43F023
:108158007F43136000F0D4F8134B00221A6000F03C
:10816800E3F8124B1B68114A43F040431360FFF7D2
:1081780085FFFFF753FF002318461037BD4680BD23
:1081880000ED00E071C20F41D8AA040824AB04082E
:1081980070C20F4148AB040800E400E0A8AE00201C
:1081A800ACAE002020ED00E00000002034EF00E03D
:1081B80080B582B000AF4FF05F0383F31188BFF33F
:1081C8006F8FBFF34F8F7B600B4B1B6801330A4ADD
:1081D8001360094B1B68012B0AD1084B1B68DBB2E3
:1081E800002B05D040F29F12054906483BF03EFBA4
:1081F80000BF0837BD4680BD0000002004ED00E048
:10820800D8AA040888AB040880B582B000AF0E4B2A
:108218001B68002B05D14FF4D3720C490C483BF076
:1082280025FB094B1B68013B074A1360064B1B687B
:10823800002B04D100237B607B6883F3118800BF87
:108248000837BD4680BD00BF00000020D8AA04083A
:10825800C0AB0408EFF30980BFF36F8F144B1A68A3
:108268001EF0100F08BF20ED108A20E9F04F1060B3
:108278004DF8043D4FF05F0080F31188BFF34F8F36
:10828800BFF36F8FFDF7EEFD4FF0000080F311880C
:1082980008BC19680868B0E8F04F1EF0100F08BF56
:1082A800B0EC108A80F30988BFF36F8F704700BF66
:1082B800F810002000BF00BF80B584B000AFEFF316
:1082C80011824FF05F0383F31188BFF36F8FBFF301
:1082D8004F8FFA60BB60FDF7E5FC0346002B03D027
:1082E800064B4FF080521A6000237B607B6883F353
:1082F800118800BF1037BD4680BD00BF04ED00E007
:1083080080B400AF054B064A1A60064B07221A6074
:1083180000BFBD465DF8047B704700BF14E000E075
:108328003F90020010E000E0DFF80C00016841F423
:1083380070010160704700BF88ED00E080B582B031
:1083480000AFEFF305837B607B680F2B0FD9114AD1
:108358007B6813441B78FB700F4B1B78FA789A42A2
:1083680005D24FF438720D490D483BF07FFA0D4B9A
:108378001B6803F4E0620C4B1B689A4205D94FF462
:108388003C72064909483BF071FA00BF0837BD4600
:1083980080BD00BFF0E300E0A8AE0020D8AA040822
:1083A800D4AB04080CED00E0ACAE002000AC04082F
:1083B80080B500AF01214FF4807001F009FA002167
:1083C8004FF4807001F004FA00BF80BD80B485B01E
:1083D80000AF786039600023FB600023FB727B6884
:1083E8005B68FB60FB6823F0407323F48073FB60D9
:1083F8003B681B791A023B681B681343FA681343EE
:10840800FB607B68FA685A607B689B68FB60FA6867
:10841800184B1340FB603B681A693B68DB681A43DA
:108428003B689B681A433B685B795B001343FA68B7
:108438001343FB607B68FA689A607B68DB6AFB60C1
:10844800FB6823F47003FB603B681B7D013BDAB2D9
:10845800FB7A1343FB72FB7A1B05FA681343FB6034
:108468007B68FA68DA6200BF1437BD465DF8047BA2
:10847800704700BFFDF7FFC080B483B000AF7860DD
:108488007B6800221A607B6800221A717B680022D0
:108498005A717B6800229A607B680022DA607B68E8
:1084A80000221A617B6801221A7500BF0C37BD468D
:1084B8005DF8047B7047000080B485B000AF786039
:1084C8000023FB600E4B5B68FB60FA680D4B1340A2
:1084D800FB607B681A687B685B681A437B689B68EB
:1084E8001A437B68DB681343FA681343FB60044A4A
:1084F800FB68536000BF1437BD465DF8047B7047C6
:1085080000230140E030FCFF80B483B000AF786006
:108518007B6800221A607B6800225A607B68002210
:108528009A607B680022DA6000BF0C37BD465DF8B0
:10853800047B704780B483B000AF78600B46FB7053
:10854800FB78002B06D07B689B6843F001027B68B0
:108558009A6005E07B689B6823F001027B689A605B
:1085680000BF0C37BD465DF8047B704780B485B00A
:1085780000AF7860084611461A460346FB700B4662
:10858800BB7013467B700023FB600023BB60FB7845
:10859800092B23D97B68DB68FB60FB78A3F10A020F
:1085A80013465B001344072202FA03F3BB60BB685F
:1085B800DB43FA681340FB607978FB78A3F10A0281
:1085C80013465B00134401FA03F3BB60FA68BB6807
:1085D8001343FB607B68FA68DA601EE07B681B69FE
:1085E800FB60FA7813465B001344072202FA03F390
:1085F800BB60BB68DB43FA681340FB607978FA78A4
:1086080013465B00134401FA03F3BB60FA68BB68C6
:108618001343FB607B68FA681A61BB78062B21D884
:108628007B685B6BFB60BB785A1E13469B00134448
:108638001F2202FA03F3BB60BB68DB43FA681340EE
:10864800FB60F978BB785A1E13469B00134401FA65
:1086580003F3BB60FA68BB681343FB607B68FA6886
:108668005A6347E0BB780C2B21D87B681B6BFB60F7
:10867800BB78DA1F13469B0013441F2202FA03F348
:10868800BB60BB68DB43FA681340FB60F978BB78D2
:10869800DA1F13469B00134401FA03F3BB60FA6820
:1086A800BB681343FB607B68FA681A6322E07B6847
:1086B800DB6AFB60BB78A3F10D0213469B001344F1
:1086C8001F2202FA03F3BB60BB68DB43FA6813405E
:1086D800FB60F978BB78A3F10D0213469B001344A5
:1086E80001FA03F3BB60FA68BB681343FB607B685D
:1086F800FA68DA6200BF1437BD465DF8047B70473C
:1087080080B483B000AF78607B689B6843F0804298
:108718007B689A6000BF0C37BD465DF8047B7047E4
:1087280080B483B000AF78607B68DB6C9BB218467E
:108738000C37BD465DF8047B704780B485B000AF48
:1087480078600B46FB700023FB737B681A68FB7824
:108758001340002B02D00123FB7301E00023FB73BD
:10876800FB7B18461437BD465DF8047B7047000054
:1087780080B483B000AF78600B46FB70FB78002BA9
:1087880006D00A4B9A6809497B6813438B6006E058
:10879800064B9A687B68DB43044913408B6000BF33
:1087A8000C37BD465DF8047B704700BF002004E02D
:1087B80080B483B000AF78600B46FB70FB78002B69
:1087C80006D00A4BDA6809497B681343CB6006E098
:1087D800064BDA687B68DB4304491340CB6000BF73
:1087E8000C37BD465DF8047B704700BF002004E0ED
:1087F80080B483B000AF78607B681B6823F0010207
:108808007B681A607B6800221A607B6800225A60C5
:108818007B6800229A607B680022DA607B6800220D
:108828001A617B6821225A617B68464A934203D1C8
:10883800454B3D229A607EE07B68444A934204D1CE
:10884800414B4FF474629A6075E07B68404A9342EA
:1088580004D13D4B4FF474129A606CE07B683D4A3A
:10886800934204D1384B4FF074629A6063E07B689E
:10887800394A934203D1344B384ADA605BE07B686B
:10888800374A934203D1304B364ADA6053E07B686B
:10889800354A934203D12C4B344ADA604BE07B686B
:1088A800334A934204D1284B4FF03D52DA6042E0FC
:1088B8007B68304A934203D12F4B3D229A603AE0BD
:1088C8007B682E4A934204D12B4B4FF474629A6012
:1088D80031E07B682A4A934204D1274B4FF4741243
:1088E8009A6028E07B68274A934204D1224B4FF0D4
:1088F80074629A601FE07B68234A934203D11E4B3F
:10890800164ADA6017E07B68204A934203D11A4B73
:10891800144ADA600FE07B681D4A934203D1164B74
:10892800124ADA6007E07B681A4A934203D1124B75
:108938004FF03D52DA6000BF0C37BD465DF8047B4E
:10894800704700BF1060024000600240286002408B
:108958004060024058600240706002403D000020C4
:1089680088600240400F0020A060024000003D20C7
:10897800B86002401064024000640240286402406B
:1089880040640240586402407064024088640240B7
:10899800A0640240B864024080B485B000AF78603B
:1089A80039600023FB607B681B68FB60FA68254B15
:1089B8001340FB603B681A683B68DB681A433B68F6
:1089C8005B691A433B689B691A433B68DB691A4336
:1089D8003B681B6A1A433B685B6A1A433B689B6A9D
:1089E8001A433B685B6B1A433B689B6B1343FA68FB
:1089F8001343FB607B68FA681A607B685B69FB60FD
:108A0800FB6823F00703FB603B68DA6A3B681B6B73
:108A18001343FA681343FB607B68FA685A613B6842
:108A28001A697B685A603B685A687B689A603B6839
:108A38009A687B68DA6000BF1437BD465DF8047B2E
:108A4800704700BF3F801CF080B483B000AF7860EF
:108A58000B46FB70FB78002B06D07B681B6843F045
:108A680001027B681A6005E07B681B6823F001023D
:108A78007B681A6000BF0C37BD465DF8047B704701
:108A880080B483B000AF78600B467B807A887B68BF
:108A98005A6000BF0C37BD465DF8047B704780B450
:108AA80083B000AF78607B685B689BB218460C3770
:108AB800BD465DF8047B704780B485B000AF786030
:108AC8000023FB737B681B6803F00103002B02D0B3
:108AD8000123FB7301E00023FB73FB7B184614376B
:108AE800BD465DF8047B704780B487B000AF7860FE
:108AF80039600023FB750023FB607B68154A9342AD
:108B080002D8154B3B6101E0144B3B613B6803F015
:108B18000053002B03D03B695B68FB6002E03B69B4
:108B28001B68FB60FB6823F0F02323F08213FB60D3
:108B3800FA683B681340002B02D00123FB7501E063
:108B48000023FB75FB7D18461C37BD465DF8047B8A
:108B5800704700BF0F64024000600240006402409A
:108B680080B485B000AF786039607B68104A934262
:108B780002D8104BFB6001E00F4BFB603B6803F031
:108B88000053002B07D03B6823F0F02323F0821317
:108B9800FA68D36006E03B6823F0F02323F08213E1
:108BA800FA68936000BF1437BD465DF8047B7047D0
:108BB8000F640240006002400064024080B485B047
:108BC80000AFF860B9601346FB71BB6803F080031F
:108BD800002B0FD0FB79002B06D0FB685B6943F0B4
:108BE8008002FB685A6105E0FB685B6923F080023C
:108BF800FB685A61BB68802B14D0FB79002B08D026
:108C0800FB681A68BB6803F01E031A43FB681A6006
:108C180008E0FB681A68BB6803F01E03DB431A40D0
:108C2800FB681A6000BF1437BD465DF8047B7047C7
:108C380080B487B000AF786039600023FB750023EB
:108C4800FB600023BB607B68224A934202D8224B18
:108C58003B6101E0214B3B613B6823F0F02323F0AB
:108C6800C313002B0AD03B68DB0A03F01E03FB602A
:108C78007B681B68FA681340BB6004E07B685B692B
:108C880003F08003BB603B6803F00053002B03D064
:108C98003B695B68FB6002E03B691B68FB60FB6843
:108CA80023F0F02323F08213FB60FA683B6813403B
:108CB800002B05D0BB68002B02D00123FB7501E017
:108CC8000023FB75FB7D18461C37BD465DF8047B09
:108CD800704700BF0F640240006002400064024019
:108CE80080B485B000AF786039607B68104A9342E1
:108CF80002D8104BFB6001E00F4BFB603B6803F0B0
:108D08000053002B07D03B6823F0F02323F0821395
:108D1800FA68D36006E03B6823F0F02323F082135F
:108D2800FA68936000BF1437BD465DF8047B70474E
:108D38000F640240006002400064024080B485B0C5
:108D480000AF78600023FB60344BFB607B689B7945
:108D5800002B4FD0314B1A687B681B68DB432F49C7
:108D680013400B602D4B5A687B681B68DB432B490B
:108D780013404B607B681B791A46FB681344FB6001
:108D8800FB6819687B681A68FB680A431A60234BFA
:108D98009A687B681B68DB43204913408B601F4B34
:108DA800DA687B681B68DB431C491340CB607B682F
:108DB8005B79102B0ED1194B9A687B681B68174991
:108DC80013438B60154BDA687B681B6813491343A0
:108DD800CB601DE0114BFB607B685B791A46FB6832
:108DE8001344FB60FB6819687B681A68FB680A43D0
:108DF8001A600DE07B681B791A46FB681344FB6018
:108E0800FB6819687B681B68DA43FB680A401A60CC
:108E180000BF1437BD465DF8047B7047003C014035
:108E280080B483B000AF7860044A7B68536100BFA8
:108E38000C37BD465DF8047B704700BF003C01401D
:108E480080B485B000AF78600023FB73084B5A6983
:108E58007B681340002B02D00123FB7301E0002341
:108E6800FB73FB7B18461437BD465DF8047B7047DF
:108E7800003C014080B483B000AF7860044A7B684E
:108E8800536100BF0C37BD465DF8047B704700BFD7
:108E9800003C014080B487B000AF7860396000239F
:108EA8007B6100233B610023FB6000237B6176E04C
:108EB80001227B6902FA03F33B613B681B683A694C
:108EC8001340FB60FA683B699A4265D17B681A686F
:108ED8007B695B00032101FA03F3DB431A407B68DB
:108EE8001A607B681A683B681B7919467B695B00C6
:108EF80001FA03F31A437B681A603B681B79012B5C
:108F080003D03B681B79022B2ED17B689A687B695A
:108F18005B00032101FA03F3DB431A407B689A6084
:108F28007B689A683B685B7919467B695B0001FA44
:108F380003F31A437B689A607B685A687B699BB223
:108F4800194601238B40DB431A407B685A607B68D3
:108F58005B683A68927911467A6992B201FA02F22C
:108F680092B21A437B685A607B68DA687B699BB265
:108F78005B00032101FA03F3DB431A407B68DA60E4
:108F88007B68DA683B68DB7919467B695B0001FA24
:108F980003F31A437B68DA607B6901337B617B6981
:108FA8000F2B85D900BF1C37BD465DF8047B704781
:108FB80080B483B000AF78607B684FF6FF721A60A8
:108FC8007B6800221A717B6800225A717B68002234
:108FD8009A717B680022DA7100BF0C37BD465DF8D4
:108FE800047B704780B485B000AF78600B467B8007
:108FF8000023FB737B681A697B881340002B02D01F
:109008000123FB7301E00023FB73FB7B1846143735
:10901800BD465DF8047B704780B483B000AF7860CC
:109028000B467B807B687A881A8300BF0C37BD4665
:109038005DF8047B704780B483B000AF78600B465E
:109048007B807B687A885A8300BF0C37BD465DF801
:10905800047B704780B483B000AF78600B467B8098
:1090680013467B707B78002B03D07B687A881A8341
:1090780002E07B687A885A8300BF0C37BD465DF8EA
:10908800047B704780B485B000AF78600B467B8066
:1090980013467B700023FB600023BB607A787B88D3
:1090A80003F007039B0002FA03F3FB607B88DB08ED
:1090B8009BB21A467B68083253F822207B8803F05B
:1090C80007039B000F2101FA03F3DB437988C908E2
:1090D80089B2084602EA03017B6800F1080243F8F6
:1090E80022107B88DB089BB21A467B68083253F84B
:1090F8002230FA681343BB607B88DB089BB21A46B0
:109108007B680832B96843F8221000BF1437BD469F
:109118005DF8047B7047000080B582B000AF7860CE
:109128007B68174A93420AD101214FF4001000F0DE
:109138002FFB00214FF4001000F02AFB1CE07B6895
:10914800104A93420AD101214FF4800000F020FB1D
:1091580000214FF4800000F01BFB0DE07B680A4AF9
:10916800934209D101214FF4000000F011FB0021C6
:109178004FF4000000F00CFB00BF0837BD4680BD6F
:109188000054004000580040005C004080B58AB0A0
:1091980000AF786039600023FB8400237B840423BC
:1091A800BB84574BFB617B689B88FB84FB8C23F05B
:1091B8003F03FB8407F10C03184600F0C1F97B69F3
:1091C800FB61FB694F4AA2FB03239B0C7B84FA8C4F
:1091D8007B8C1343FB847B68FA8C9A807B681B88A2
:1091E8009BB223F001039AB27B681A800023FB84A8
:1091F8003B681B68444A934215D83B681B685B0070
:10920800FA69B2FBF3F3BB84BB8C032B01D80423AC
:10921800BB84FA8CBB8C1343FB847B8C01339AB2DE
:109228007B681A8440E03B68DB884BF6FF72934208
:1092380009D13B681A6813465B001344FA69B2FB0C
:10924800F3F3BB840EE03B681A6813469B00134493
:109258009A001344FA69B2FBF3F3BB84BB8C43F462
:109268008043BB84BB8CC3F30B03002B03D1BB8CA3
:1092780043F00103BB84BA8CFB8C13439BB26FEAA7
:1092880043436FEA5343FB847B8C4FF4967202FB93
:1092980003F31E4A82FB03129211DB17D31A9BB207
:1092A80001339AB27B681A847B68FA8C9A837B684C
:1092B8001B889BB243F001039AB27B681A807B68D3
:1092C8001B88FB84FB8C23F4816323F00203FB845B
:1092D8003B689A883B685B8913439AB2FB8C1343BB
:1092E800FB847B68FA8C1A803B689A893B681B89E7
:1092F80013439AB27B681A8100BF2837BD4680BDE8
:1093080000127A0083DE1B43A0860100D34D621051
:1093180080B483B000AF78600B46FB701346BB7017
:10932800BB78002B04D0FB7843F00103FB7003E00B
:10933800FB7823F00103FB70FB789AB27B681A82F2
:1093480000BF0C37BD465DF8047B704780B483B01E
:1093580000AF78600B46FB70FB78002B08D07B6869
:109368001B889BB243F480639AB27B681A8007E03B
:109378007B681B889BB223F480639AB27B681A804F
:1093880000BF0C37BD465DF8047B704780B483B0DE
:1093980000AF78600B46FB70FB789AB27B681A8244
:1093A80000BF0C37BD465DF8047B704780B483B0BE
:1093B80000AF78607B681B8A9BB2DBB218460C371B
:1093C800BD465DF8047B704780B483B000AF786019
:1093D8000B46FB70FB78002B08D07B689B889BB200
:1093E80043F400639AB27B689A8007E07B689B88A5
:1093F8009BB223F400639AB27B689A8000BF0C3753
:10940800BD465DF8047B704780B483B000AF7860D8
:109418000B46FB70FB78002B08D07B689B889BB2BF
:1094280043F480539AB27B689A8007E07B689B88F4
:109438009BB223F480539AB27B689A8000BF0C37A2
:10944800BD465DF8047B704780B483B000AF786098
:109458000B467B8013467B707B78002B08D07B689B
:109468009B889AB27B8813439AB27B689A8009E0FA
:109478007B689B889AB27B88DB439BB213409AB285
:109488007B689A8000BF0C37BD465DF8047B704747
:1094980080B487B000AF786039600023FB75002383
:1094A8003B610023FB607B68FB603B681B0F3B61F3
:1094B8003B6823F07F433B603B69002B03D0FB688C
:1094C8001433FB6005E03B681B0C3B60FB681833FA
:1094D800FB60FB681A683B681340002B02D001232D
:1094E800FB7501E00023FB75FB7D18461C37BD4664
:1094F8005DF8047B704780B485B000AF7860396050
:109508000023FB603B6823F07F43FB60FB689BB252
:10951800DB439AB27B689A8200BF1437BD465DF878
:10952800047B704780B400AF044B4AF6AA221A6045
:1095380000BFBD465DF8047B704700BF00300040A7
:1095480080B489B000AF78600023BB6100237B61E1
:109558000023FB6102233B610023FB600223BB6005
:10956800474B9B6803F00C03BB61BB69042B07D016
:10957800082B09D0002B3DD17B68424A1A603DE098
:109588007B68414A1A6039E03D4B5B689B0D03F0EC
:109598000103FB603A4B5B6803F03F03BB60FB6869
:1095A800002B0CD0384ABB68B2FBF3F3344A52683C
:1095B8009209C2F3080202FB03F3FB610BE0314A94
:1095C800BB68B2FBF3F32E4A52689209C2F3080251
:1095D80002FB03F3FB612A4B5B681B0C03F00303DC
:1095E80001335B003B61FA693B69B2FBF3F27B68CC
:1095F8001A6003E07B68234A1A6000BF204B9B680F
:1096080003F0F003BB61BB691B09BB611F4ABB695F
:1096180013441B78DBB27B617B681A687B69DA408C
:109628007B685A60164B9B6803F4E053BB61BB69C7
:109638009B0ABB61154ABB6913441B78DBB27B618B
:109648007B685A687B69DA407B689A600C4B9B6838
:1096580003F46043BB61BB695B0BBB610B4ABB692D
:1096680013441B78DBB27B617B685A687B69DA40FC
:109678007B68DA6000BF2437BD465DF8047B70471D
:10968800003802400024F40000127A000400002090
:1096980080B483B000AF78600B46FB70FB78002B7A
:1096A80006D00A4B1A6B09497B6813430B6306E023
:1096B800064B1A6B7B68DB43044913400B6300BFFE
:1096C8000C37BD465DF8047B704700BF0038024088
:1096D80080B483B000AF78600B46FB70FB78002B3A
:1096E80006D00A4B5A6B09497B6813434B6306E063
:1096F800064B5A6B7B68DB43044913404B6300BF3E
:109708000C37BD465DF8047B704700BF0038024047
:1097180080B483B000AF78600B46FB70FB78002BF9
:1097280006D00A4B1A6C09497B6813430B6406E0A0
:10973800064B1A6C7B68DB43044913400B6400BF7B
:109748000C37BD465DF8047B704700BF0038024007
:1097580080B483B000AF78600B46FB70FB78002BB9
:1097680006D00A4B5A6C09497B6813434B6406E0E0
:10977800064B5A6C7B68DB43044913404B6400BFBB
:109788000C37BD465DF8047B704700BF00380240C7
:1097980080B483B000AF78600B46FB70FB78002B79
:1097A80006D00A4B1A6A09497B6813430B6206E024
:1097B800064B1A6A7B68DB43044913400B6200BFFF
:1097C8000C37BD465DF8047B704700BF0038024087
:1097D80080B483B000AF78600B46FB70FB78002B39
:1097E80006D00A4B5A6A09497B6813434B6206E064
:1097F800064B5A6A7B68DB43044913404B6200BF3F
:109808000C37BD465DF8047B704700BF0038024046
:1098180080B487B000AF0346FB710023FB600023D0
:109828007B610023FB74FB795B09DBB2FB60FB689F
:10983800012B03D1124B1B687B6109E0FB68022BEB
:1098480003D10F4B1B6F7B6102E00D4B5B6F7B619C
:10985800FB7903F01F03FB607A69FB6822FA03F3C4
:1098680003F00103002B02D00123FB7401E0002365
:10987800FB74FB7C18461C37BD465DF8047B7047BB
:109888000038024080B400AF054B5B6F044A43F0D8
:109898008073536700BFBD465DF8047B704700BF07
:1098A8000038024080B582B000AF78607B682E4AED
:1098B80093420AD101214FF48050FFF789FF00211C
:1098C8004FF48050FFF784FF49E07B68274A9342B2
:1098D8000AD101214FF48040FFF75AFF00214FF4CD
:1098E8008040FFF755FF3AE07B68214A93420AD14E
:1098F80001214FF40040FFF74BFF00214FF40040D7
:10990800FFF746FF2BE07B681A4A93420AD10121F0
:109918004FF40050FFF75CFF00214FF40050FFF7B1
:1099280057FF1CE07B68144A93420AD101214FF487
:109938008010FFF74DFF00214FF48010FFF748FF1C
:109948000DE07B680D4A934209D101214FF40010C4
:10995800FFF73EFF00214FF40010FFF739FF00BF6B
:109968000837BD4680BD00BF0030014000380040C8
:10997800003C0040003401400050014000540140C8
:1099880080B485B000AF786039600023FB817B68C4
:109998001B88FB81FB8903F44153FB813B681A88D0
:1099A8003B685B8813439AB23B689B8813439AB21F
:1099B8003B68DB8813439AB23B681B8913439AB20E
:1099C8003B685B8913439AB23B689B8913439AB2FD
:1099D8003B68DB8913439AB2FB891343FB817B689D
:1099E800FA891A807B689B8B9BB223F400639AB236
:1099F8007B689A833B681A8A7B681A8200BF14378F
:109A0800BD465DF8047B704780B483B000AF7860D2
:109A18000B46FB70FB78002B08D07B681B889BB239
:109A280043F040039AB27B681A8007E07B681B8882
:109A38009BB223F040039AB27B681A8000BF0C37B0
:109A4800BD465DF8047B704780B483B000AF786092
:109A58007B689B899BB218460C37BD465DF8047B32
:109A6800704780B483B000AF78600B467B807B681A
:109A78007A889A8100BF0C37BD465DF8047B704731
:109A880080B483B000AF78600B467B8013467B7050
:109A98007B78002B08D07B689B889AB27B8813431D
:109AA8009AB27B689A8009E07B689B889AB27B8827
:109AB800DB439BB213409AB27B689A8000BF0C3795
:109AC800BD465DF8047B704780B485B000AF786010
